:020000041000EA
:1000000000B5324B212058609868022188439860DF
:10001000D860186158612E4B002199600221596106
:100020000121F02299502B49196001219960352056
:1000300000F044F80222904214D00621196600F024
:1000400034F8196E01211966002018661A6600F04E
:100050002CF8196E196E196E052000F02FF8012189
:100060000842F9D1002199601B49196000215960AB
:100070001A491B48016001219960EB211966A021F2
:10008000196600F012F800219960164914480160C1
:100090000121996001BC002800D000471248134993
:1000A000086003C880F30888084703B5996A0420EC
:1000B0000142FBD001200142F8D103BD02B5186610
:1000C0001866FFF7F2FF186E186E02BD00000240BE
:1000D000000000180000070000035F00212200005C
:1000E000F4000018222000A00001001008ED00E03C
:1000F00000000000000000000000000074B24E7A12
:1001000000200420F7010010C3010010C5010010F9
:10011000C1010010C1010010C1010010C101001097
:10012000C1010010C1010010C1010010C701001081
:10013000C1010010C1010010C9010010CB01001065
:10014000CD010010CD010010CD010010CD01001037
:10015000CD010010CD010010CD010010CD01001027
:10016000CD010010CD010010CD010010CD01001017
:10017000CD010010CD010010CD010010CD01001007
:10018000CD010010CD010010CD010010CD010010F7
:10019000CD010010CD010010CD010010CD010010E7
:1001A000CD010010CD010010CD010010CD010010D7
:1001B000CD010010CD010010CD010010CD010010C7
:1001C00000BE00BE00BE00BE00BE00BEEFF3058054
:1001D000103800BEF2EB8871804F0010A44F001061
:1001E0003802001090A31AE71E481F49086006C88D
:1001F00081F3088810471D480068002801D019487D
:10020000F3E70DA40ECC002902D000F012F8F9E7B4
:100210001749184A002000E001C19142FCD116495B
:100220008847164988471649884700BEFDE701C937
:1002300001C29A42FBD37047A44F0010C0000020B7
:1002400060100020445F0010000004200000042023
:10025000445F001000100420001004200000000083
:10026000704700000000000008ED00E0000000D032
:10027000601000206C1F00204D1F0010ED020010C8
:10028000451F0010F8B5C04606480749091A8B10EB
:10029000C90FC91810B5491003D0044B002B00D06A
:1002A000984710BD60100020601000200000000082
:1002B000054B10B5002B03D00449054800E000BFF2
:1002C000FFF7E2FF10BDC04600000000001E002046
:1002D0003C4B0010052800D070474907FCD501228F
:1002E000014B1A70F8E7C046641F0020F8B5D0240F
:1002F000802501F037FF24060C206D0100F014FA70
:100300000B20656200F010FA80231B010520636258
:1003100000F00AFA2023002201210520A36200F048
:1003200087F90122042105200D4B00F095F90D4EAF
:10033000FA206561400001F0EBF8FA20A561400069
:1003400001F0E6F83378002BF2D080273F01C82077
:10035000676101F0DDF80023A7613370E8E7C0466C
:10036000D5020010641F0020D0231B061B68AC4A76
:100370009900F0B5DE468B4651585A4253412F2220
:1003800057464E4645465B4293439A46A54BE0B5D9
:100390009C4683B000260191E244002938D0A24B4C
:1003A00099465246F30808339B009D5801233400B8
:1003B00098460836002D22D00F2120002940013414
:1003C0002D09002919D04B465A469A580300C240BD
:1003D000203BDB171340424613420CD107220F008B
:1003E0000240920097403A00C308904F3C339B0074
:1003F000DA51019B9847002D01D0B442DCD3202E66
:10040000CFD103B0F0BCBB46B246A946A046F0BD72
:10041000854E5F4600210F23B346CC08220050468C
:10042000083292001258002A00D1D0E01800104083
:100430008046100913421AD05D46ED59A946202581
:100440006D42AC468C446546ED17AC464D46CD40FA
:10045000A94665464E4635400126354204D14646FA
:10046000724D3C34A4006651002800D1AFE01C005E
:100470000440A446140A03421AD0481C8046584639
:10048000C059464681464D460800F5401F38C01702
:1004900028400125284208D165462D01AC46F008C8
:1004A0006646624D3C3080004651002C00D18EE003
:1004B000180020408446100B234211D08C1CA0460B
:1004C0005C46E4594646A1464D460C00F5401E3CAC
:1004D000E4172C4001252C4200D182E0002876D080
:1004E0001C000440A446140C034210D0C81C8046D3
:1004F0005846C059464681464D460800F5401D38CD
:10050000C01728400125284275D0002C5FD0180064
:1005100020408046100D23420ED00C1DA446654697
:10052000414CE459EC40A1460C004D461C3CE40F04
:100530002C426AD000284AD01C000440A446140E65
:10054000034218D0481D804645463748C059E84008
:10055000814608004D461B38C00F284209D1654628
:100560002D05AC4640466646C008304D3C30800004
:100570004651002C2BD0180020408446120F2342F5
:100580002AD029488C1D8146C059E0408046080089
:1005900045461A38C00F284206D1E0086446234D6C
:1005A0003C30240680004451002A10D04846C059EF
:1005B000CC1DE0408446080065461938C00F28422B
:1005C00005D1E0083C30194C120780000251083177
:1005D000202900D021E714E7002AF8D012488146EC
:1005E000E4E765462D02AC46F40866460F4D3C3400
:1005F000A400665172E765462D03AC46F0086646D6
:100600000A4D3C30800046517FE745462D04A84600
:1006100064464646E408054D3C34A400665189E72B
:100620008019002030410140301E00200040014070
:10063000074B8000C3181B68C90092000A435A4048
:100640000C231340034A9446604403607047C0463D
:1006500004C0014004D00140F8B545469846D02377
:100660001B06DE461C689B462B4B57469A46A3004A
:100670004E469946E0B5534616004A469B58070039
:100680000D00002B34D04346002B3FD053464A4642
:1006900041469950D0231B061C6863425C412F22BF
:1006A0000720634293431D4A38409446FA081100DC
:1006B000800085403C311A486344890092000D5007
:1006C0009B18002E0ED08022920194466344012193
:1006D0000D201D6000F00AF9F0BCBB46B246A946E9
:1006E000A046F8BDC0229201944663441D60F3E722
:1006F0004346002BD1D0534641460D20995000224D
:10070000084900F055F95B461C68C6E70D2005490D
:1007100000F048FABAE7C046801900203041014095
:1007200000400140690300100123D02283401206DB
:1007300093629361094A83009A18116840225140DC
:1007400080320A400649C0008C4663441A60054B5B
:100750009C460523604443607047C04604C0014086
:1007600004D00140004001408023DB051868000FE1
:100770007047C0460FB400B5084883B001F040FD93
:10078000049B002B07D005A91800019101F0C0FBC4
:10079000034801F035FD012001F0D2FB3C4B001075
:1007A0004C4B001070B5EFF3108C72B60D4D2B68EA
:1007B000002BFCD0BFF35F8F0724CB08C618C05CAA
:1007C00001230C40A3401C000440034207D11843FE
:1007D0003070BFF35F8F2C608CF3108870BD1000F9
:1007E000FFF7C8FF2C0100D0F8B54746CE46884633
:1007F00080B5EFF3108C72B61C4D2C68002CFCD029
:10080000BFF35F8F9A4222D807210126894602E072
:100810000132934218D34D4637001540AF40D408FB
:100820000119045D2742F3D110003C430C70BFF363
:100830005F8F00220D4B1A608CF3108800280EDBAE
:10084000C0BCB946B046F8BD01204042EFE7BFF357
:100850005F8F00232B608CF31088012040424346B9
:10086000002BEDD00898FFF785FFC0462C0100D083
:10087000044A1078431CDBB2172B00D910231370E5
:100880007047C046980F002010B5064B064C82B04A
:100890000100009318221F232000FFF7A5FF02B0DC
:1008A00010BDC046504B0010901900200021044B91
:1008B000044ABFF35F8F02C39342FAD17047C04628
:1008C000000100D0800100D0054B064A1360064AA3
:1008D000136053609360D3601361536193617047F9
:1008E0008080808000E400E004E400E01F231840E2
:1008F0001E3B8340002905D0C021044A49005350C3
:1009000013607047802201498B50FAE700E100E054
:1009100001228240034B1B6813405A1E9341D8B2F8
:100920007047C04600E100E001238340014A1360A4
:100930007047C04600E200E0064B10309B68800024
:10094000C358054A00209B1A2F229A424041C0B248
:100950007047C04600ED00E09C0F002070B50D0010
:10096000EFF3108672B60F4A1368002BFCD0BFF36A
:100970005F8F0D4B10309B6884001B590B4A9342CC
:1009800003D09D4201D001F0E9F8074B9B681D514F
:10099000BFF35F8FBFF35F8F0022024B1A6086F3B5
:1009A000108870BD240100D000ED00E0CD010010E2
:1009B000F0B557464E46DE464546E0B585B00600E2
:1009C00000911700EFF3108B72B66A4A1368002B80
:1009D000FCD0BFF35F8F0025674B5D579A46002D13
:1009E00000DAA9E06B00654C01935B199B00984607
:1009F000A146C1444B4652469B7910361370604B5A
:100A0000B6009B6899590B1B2F2B33D95D4B99422C
:100A100000D0ACE0019B42469C465B4B6544AD0078
:100A200063535A4B0232A218043B9B1A1B05584AC7
:100A30005B0D651913436B80564B0121AB80FF237F
:100A4000AB71009BEF71AB604B460B4319004C4BF5
:100A50009B689951BFF35F8FBFF35F8F0022454BB7
:100A60001A608BF3108805B0F0BCBB46B246A946AD
:100A7000A046F0BD01200A008243D3798C46BB42D8
:100A800031D84546130044491B1B5B415943090DAE
:100A90003D4B63533D4B02356519043B5B1B1B0506
:100AA0003B4D5B0D2B43AA464D466B800425AC465F
:100AB0005546E044131F44441B1B1B055B0D1D439F
:100AC0004B46997100999D8099604946DF71334B7F
:100AD00001431360BBE75800C01880002018C1799B
:100AE000B9422FD902000623D356002BF3DA029322
:100AF0002B4B61460393131D9A4604235B429C468D
:100B0000E14450464B461B1A1B055B0D9C46204B8F
:100B1000957198466346404603439380019B5A195A
:100B20009200039BA418A380029B1C4AA371009B04
:100B30002260E771A3608AE701F010F800255346B0
:100B40005D574FE7908802934005131D9A460315A1
:100B500061469C464046D444634604302018181A27
:100B6000E0230005400D1B0218430390C5E700F089
:100B7000F5FF4FE7240100D0661F00209C0F0020E6
:100B800000ED00E0CD01001000A1FFFFCC0F002020
:100B900000E0FFFF01BDFFFFAAAA00000148804757
:100BA00001BD0000F0B5DE4657464E464546E0B56D
:100BB0000C0083B0EFF3108872B6634A1368002B01
:100BC000FCD0BFF35F8F614B61499A68030010331B
:100BD0009F00D55901938D4243D0A54254D05D4E1C
:100BE000AA1B2F2A3DD85C4B9B461B6899460123C4
:100BF0001A009C4682404B4613401F22994663468A
:100C0000024093409A4680225B4650469850BFF37C
:100C10005F8FEFF305839B46002B37D0019B5B452D
:100C200001D000F09BFF01232A009A439068844280
:100C300008D176E04B005B189B00F318986884425B
:100C400036D01A00062151560029F3DA844254D0D6
:100C50004B46002B27D0C02251463F4B52009950A3
:100C600019603A4B9B68DD51BFF35F8FBFF35F8F15
:100C70000022354B1A6088F3108803B0F0BCBB46E5
:100C8000B246A946A046F0BD0D00EAE72A00634639
:100C90009A4390688442D5D106201056130000284C
:100CA0000ADA0D0031E0802351462B4AD150D8E7B3
:100CB00006201856002821DB4200111889007418FC
:100CC0008B46A1689960E179D971062161569971C5
:100CD000002924DBA488F11A640524155C44091951
:100CE00009051E4C490D2143998013181C4A9B008D
:100CF0001178F31899711070AAE71300594600296A
:100D000014D1FF3191711749918015490A789A7170
:100D1000154A9B1B5B415A43120D0A7098E7114913
:100D2000E2E70620105613000028C5DA0F4A1049E2
:100D3000D21A083A5002400D014399800D495208D9
:100D40000A43DA8084E7C046240100D000ED00E0C9
:100D5000CD0100109C0F002000E100E000E0FFFF4B
:100D6000661F002001BDFFFFAAAA0000D60F0020C9
:100D700000F0FFFF00F8FFFF70B501240443EFF31C
:100D80000581EFF3108C72B6214A1368002BFCD05A
:100D9000BFF35F8F1F4B05001F4AED1A6D416A4379
:100DA000120D1E4D8900AE6852B27658A6421CD074
:100DB0000621595691421CD012215956914222D0F7
:100DC0001E215956914220D02A215956032491427E
:100DD00010D0134B19781A708171BFF35F8F002206
:100DE0000B4B1A608CF3108870BDAB680D4C5C50D7
:100DF000EFE700246100091989005B18FF21997150
:100E000009499980E5E70124F4E70224F2E7C046A6
:100E1000240100D09C0F0020AAAA000000ED00E0F1
:100E2000661F0020CD01001001BDFFFF10B5084B6B
:100E3000084C82B001000093002205232000FFF738
:100E4000D3FC002801DB1F23181A02B010BDC046D6
:100E50006C4B00106A1F0020024B9C4661448900C5
:100E6000016070474000003470B5114C114DAC4228
:100E70000FD2FF262368002B0CD0FFF7F9FC0100EE
:100E80002000FFF7E9FFA680BFF35F8F0834AC4274
:100E9000F0D370BDFFF7ECFC01002000FFF7DCFF92
:100EA0002671BFF35F8F0834AC42E3D3F1E7C0464D
:100EB000581000206010002010B50400FFF7D8FC87
:100EC00001002000FFF7C8FFFF232371BFF35F8FEE
:100ED00010BDC04610B504000120FFF7D5FC034B40
:100EE000C3189B002360BFF35F8F10BD4000003428
:100EF000034B9C46614489000160BFF35F8F7047DC
:100F0000400000340A4B1968EFF3108072B60A688B
:100F1000002AFCD0BFF35F8F1B68BFF35F8F0022F6
:100F20001A6080F3108840BF002000217047C0463F
:100F3000441F0020F0B5DE4657464E464546E0B514
:100F400087B0EFF30583032201251A4095409100F5
:100F50008846A946B34B03925C58B34B1D60B34B14
:100F600004934B46B24843630823E55E002D37DA0D
:100F7000A3881BB2002B00DBADE0A379002B00D0CF
:100F8000EEE00823E05E002820DB430062691B18C6
:100F9000DB00D3189E68DD68731C00D111E1A44802
:100FA00001004144826A0B69B71A9B1A9F4215D30C
:100FB0000123026A039883401A420FD09C4800F034
:100FC000B5FB8D4202DCCCD18642CAD940BF07B006
:100FD000F0BCBB46B246A946A046F0BD0E61EDE7A7
:100FE00062696B0092465B19DB009A4453469E6827
:100FF000DF6800F09BFB8F42BADC00D103E1002FD9
:1010000000DAE8E05246534652691B699346049A57
:10101000934200D1D9E052460821605E5288000414
:10102000594610439847009001910099019A0B008E
:101030001000134300D1CEE013000A00B61A9F41FE
:10104000002806DB7A4800F071FB009E019F3618ED
:101050004F4153469E60DF6000229A5E002A00DA0C
:1010600086E7530099186069C900411802938B689C
:10107000C9689B46B94200DD7AE702D1B34200D984
:1010800076E708239C46A444059565462281A4463C
:10109000029B2C0006E053009918C90041188D6886
:1010A000C968AB469B18DB00C318B94206DC00D107
:1010B000B3E01C000023E25E002AECDA2300644661
:1010C0009C4653461A806346059D1D80A3881BB22B
:1010D000002B00DA51E72269EFF3108172B6136832
:1010E000002BFCD0BFF35F8F0123A7885B42A38056
:1010F0003FB22369BFF35F8F00221A6081F310882B
:10110000002F00DA39E72300083322009A46666987
:101110007B00DB19DB00F318996850468C460824E5
:10112000115FDD68002910DB029306E0AB4244D07A
:101130000023E15E2000002906DB4C006418E40077
:101140003419E368AB42F1DD029B078000201F5E8B
:101150001980002FDCDA1400A379002B00D110E7EE
:101160000023A37126000823E15E08364B1C00D142
:101170002CE70800A246656902E03E004B1C1AD02D
:101180004B005B18DB00EF180A008C46E95E7B8899
:101190001BB2002BF1DA01235B42DC17BB60FC6061
:1011A000824205D0534631801B893B8053461A81C9
:1011B00060464B1CE4D15446E5E6A3686345B7D9C5
:1011C000C2E76B1C00D0EAE6F8E65B4658461B69AE
:1011D000984700281BD153461B8822692381EFF3CF
:1011E000108372B611680029FCD0BFF35F8F51469F
:1011F00062880A8022696580BFF35F8F00211160D9
:1012000083F31088B4E6864200D8F8E6B0E65B4681
:101210001A685B680092019307E7B34500D848E776
:101220004CE7C046201E00203C700540350F0010E2
:101230000040054070B52E4C2569002D04D00A21D0
:101240002C48FFF709FE70BD2B4E0321300000F043
:1012500063FAE660FFF70CFB284B03229C46D02381
:1012600022701B061B6801216370254B6044A3603C
:101270000F23800020610220638063694942A180BE
:1012800019800231198647311D83585218315A523C
:1012900075325C3999521832013199521832013144
:1012A0009952183201319952083518329D52023143
:1012B000183299521832013199521832013199522B
:1012C00018320131995218320131995218320131D4
:1012D00099520C4B0C49DC6001303562FFF73EFB44
:1012E00001210320FFF702FB084B1D60A7E7C04662
:1012F000E40F0020441F002000400540400000345F
:10130000FFFF1000201E0020350F00103860054040
:1013100000487047E40F0020F8B51F0008AB1B78A9
:1013200004001600002B08D100F008FA32003B0040
:10133000121A8B41002B00DA52E02269EFF3108081
:1013400072B61368002BFCD0BFF35F8F0223E15EFF
:1013500063694A005218D2009B182269002936DBC3
:101360001D886580BFF35F8F0025156080F31088AE
:10137000069A9E60DF601A61079A5A615A880132A4
:101380005204520C101C002A1FD082B2588008044C
:1013900010432669EFF3108772B63268002AFCD03A
:1013A000BFF35F8FA2881A80A1802369BFF35F8F8C
:1013B00000221A6087F310880A4923788C4601328C
:1013C0009A40E36863441A60F8BD0120DDE7BFF38B
:1013D0005F8F0023136080F3108801204042F3E701
:1013E0000020F1E73C20000070B501000469EFF334
:1013F000108C72B620680028FCD0BFF35F8F0220EB
:101400000D5E4C6968004019C00024180869002D61
:1014100036DB26884E80BFF35F8F002606608CF394
:101420001088E36063880498013320615B040598A9
:101430005B0CA26060611A1C002B1FD093B22804C1
:10144000628018430A69EFF3108C72B61368002BA0
:10145000FCD0BFF35F8F8B8823808D800B69BFF337
:101460005F8F00221A608CF310880B7801329A404B
:10147000CB6808498C4663441A6070BD0122DDE7E1
:10148000BFF35F8F002303608CF31088012040427C
:10149000F3E7C0463C20000010B543890A1493428C
:1014A0001ADD53009B184269DB00D3180469EFF37F
:1014B000108C72B62268002AFCD0BFF35F8F5A8866
:1014C000090494B2090C8A4208D00369BFF35F8F04
:1014D00000221A608CF31088002010BD80221202B6
:1014E00014435C80012302698371BFF35F8F002185
:1014F00011608CF31088044902788C469340C268CE
:10150000012062441360E8E73C2000004078704707
:10151000F0B5C64600B582B0040000F00FF9FA221B
:1015200006000F00200000230021920000F086FC3E
:101530008019794104000D1E02DA01242E4D644207
:1015400006267642F71736196F41AF4214D811D0EC
:1015500000F0F4F832003B00121A8B41002B15DC2E
:10156000002B46D02000290000F0F2F802B080BC29
:10157000B846F0BDA642EBD90026002700F0DEF801
:1015800032003B00121A8B41002BE9DD00F0D6F847
:1015900032003B00121A8B41002B0ADB002301931F
:1015A000164B3200009316483B00FFF71DFF013039
:1015B000D8D000233900B0469C46124A1248536ADC
:1015C000994204D8966A4645CCD29942CAD1066857
:1015D000EFF3108772B63368002BFCD0BFF35F8F38
:1015E0000368BFF35F8F66461E6087F3108820BFD5
:1015F000E5E7002AB6D0C9E7FFFFFF7F050F00101F
:10160000E40F002000400540441F0020F0B557467D
:101610004E46DE464546E0B506000F0085B0EFF3C6
:10162000058399468B46002B12D0384900204B6A1F
:10163000BB4206D38A6ADB1B591E8B41B242404132
:10164000184305B0F0BCBB46B246A946A046F0BD63
:101650002F4B9A46DB68984653461B7840460393C7
:1016600000F064F84246039B040004339B009B583F
:101670000D001B1A39003000001BA941894510DC00
:101680000DD020BF214A0020536A5B45D9D3926A0E
:10169000DB1B591E8B41B24240411843D1E78342C4
:1016A000EFD900F04BF832003B00121A8B41002BAF
:1016B0001ADB00230193174B3200009350463B0086
:1016C000FFF792FE011E0FDD104B5A6A5A451BD3DD
:1016D0009B6AB34216D35046FFF7DEFE0B4A00204A
:1016E000536A5B45ADD3D2E7084A0020536A5B4595
:1016F000A7D30020926ADB1BB24240415A1E93419D
:1017000018439EE75A45E6D120BFE4E70040054074
:10171000E40F0020050F001010B5024A0248FFF741
:1017200041F810BD884B0010941900200300416A55
:101730000A00986A596A8A42FAD17047034B596A7B
:101740000A00986A596A9142FAD1704700400540F0
:10175000064A536A9942FCD807D1044B02E05A6A00
:10176000914202D19A6A9042F9D8704700400540F0
:10177000F8B5DE464E4657464546E0B58B46050071
:101780000A991800160000F0C7FA0A9B6C001F02A5
:10179000324B64199C46A4006444636881469F42AE
:1017A00000D967602B1FDBB29846012B30D9C023CC
:1017B00080229B01E31812011A60294BAD00595990
:1017C0009A4600291BD17301E026226853401E402F
:1017D000802342465B01E3181E60012A30D9802332
:1017E00080229B01E31812011A6053464A46676043
:1017F0005A51F0BCBB46B246A946A046F8BD58694E
:1018000000F08AFA013043001B18033BFDD2DAE7EF
:101810005B46012BCBD1C02303229B01E3181A6046
:10182000023AA3681A42FCD07301E0262268AD0098
:1018300053401E4080230A4A5B019246E3181E6013
:101840005A462168514003220A401A6001225B4631
:101850009A40A3681A42FCD0C1E7C046008000400D
:1018600098190020F0B546464F46D646C0B51F0031
:10187000344B44009C462418A400644463688846A2
:101880001600FF2B02D880235B006360031FDBB2CE
:101890009A46012B30D9C02380229B01E318120104
:1018A0001A60294B85005959994600291BD17301AB
:1018B000E026226853401E40802352465B01E31815
:1018C0001E60012A30D9802380229B01E318120177
:1018D0001A6080235B0063604B465F51E0BCBA46F0
:1018E000B146A846F0BD586900F016FA0130430031
:1018F0001B18033BFDD2DAE74346012BCBD1C023B3
:1019000003229B01E3181A60023AA3681A42FCD032
:101910007301E0262268850053401E4080230A4A56
:101920005B019146E3181E60424621685140032244
:101930000A401A60012342469340A2681342FCD039
:10194000C1E7C0460080004098190020014B80008C
:10195000C058704798190020F8B5040021481E00AF
:1019600017000D0000F0D8F90100380000F0D4F99C
:10197000069B36041B031E432368002B20DB1A4BF7
:101980001A49E3185A1E93418022920194465B4201
:101990001B0B174A1B0363441360164A13601F0096
:1019A0000A689743FBD1144B2560E2182123A060FD
:1019B00013602368002BFCDA0823E6601360F8BD8F
:1019C0003F2322681340AB42D9D1A3681B051B0DEE
:1019D0008342D4D1EE22E368D2021340B342CED187
:1019E000EDE7C046001BB7000040FDBF08C0004047
:1019F00000E0004000F000400430000010B58024FA
:101A00001C4BE4051C6000281AD001231A4C184313
:101A10001A4BDC611A4C44401C6259629862802166
:101A2000144BC9051960174817490860E021C9041B
:101A30001960002A07D18022144B12061A6010BDCB
:101A40000E4BD861EBE753019B1A9B009A18802339
:101A500012015B049A4209D213000D490B60074B37
:101A60005A608022094BD2051A60E8E7094B1A0038
:101A7000F3E7C04600B00540D3C007B00080054082
:101A80002D3FF84FFCFF01000820014000A0054059
:101A9000F81D0020FFFFFF008023024A9B000B433C
:101AA000D362704700800540002310B50100988A7A
:101AB0001B8B984710BDC046162310B5010018882F
:101AC00002331B88984710BDF8B54746CE4680B50F
:101AD0000F1E18D014239946043304000025012654
:101AE00098464B461888434621681B88984701C48E
:101AF000431E984101350640AF42F2D13000C0BCD0
:101B0000B946B046F8BD0126F8E7C046002370B5D7
:101B100004000D00988A05491B8B9847030000209C
:101B2000002C01DB0130A0402900984755420000FD
:101B3000AA23064A1B0113608D235B00D36004496E
:101B4000044B19605368002BFCDA704700400240D8
:101B500000B0FA00006002407047C04610B501486E
:101B6000FEF708FEAC4B001070B5074D074EB542AE
:101B700009D20024013E761BB60808CD9847230001
:101B80000134B342F9D170BDF84A0010344B001053
:101B9000054B064A06491A60064A074B1A601000B0
:101BA0000B689843FBD1704700E00040BFCDFBFEBF
:101BB00008C00040FE7F3C0000F00040044BDB6C9E
:101BC000002B03D18022034BD2021A607047C0461B
:101BD000000011504C201150044A054B1A60054A70
:101BE0001368DB018033FBD17047C046FFFFFF0164
:101BF00000F0004008C000404022034B9A675A673B
:101C00001A67DA667047C04600F0014010B5FEF76B
:101C10004DFE10BD70B5044D044CA968C0222000D3
:101C200000F068F9AC6070BD00ED00E0000000203D
:101C3000002310B5294C82B0A367FFF779FF01227A
:101C4000274B1A60636C012BFCD10322254B1A60D1
:101C5000224A936B012BFCD1013300930121224ACC
:101C600022480433FFF778FE052301210093204A20
:101C70002048FFF771FE0022022104201E4BFFF7CF
:101C8000F1FD0022012105201C4BFFF7EBFD002296
:101C9000002107201A4BFFF7E5FD00220021082054
:101CA000174BFFF7DFFD8023DB00009300220021AC
:101CB0000920134BFFF75CFD0022104B002106208A
:101CC000FFF7D0FD0420FFF741FE0E4900F024F895
:101CD00001000020FFF7E0FE02B010BD00800040D0
:101CE0003CB0004030B00040002F685900800240F6
:101CF000008C864700C00240001BB70040597307A4
:101D0000006CDC0240420F0001480421014B1847DF
:101D100000100020C91A0010114A936F9B0813D2BB
:101D200010665166002905D0FFE7FFE7FFE7516F16
:101D3000106F704704B5002801D00020C04302F0A6
:101D4000A3FE002104BDC046F0B5146E556E576F5A
:101D5000166FFFF7E5FF1466556657671667F0BD07
:101D6000000000D010B50148FEF704FDB84B00108C
:101D7000132370B51D78012D19D014DD1D48FFF710
:101D80009BFE06001C48FFF797FE1C4C802231008A
:101D9000200000F0AFF8022D06D01948FFF784FEAE
:101DA000184B186070BD154C174BA364F5E7174B23
:101DB000124C23606360A360E36023616361A361ED
:101DC000E36123626362A362E36223636363A363E9
:101DD000E36323646364A364E36423656365A365C9
:101DE000E36523666366A366E36623676367A367A9
:101DF000E367D9E75344000053460000E811002090
:101E00004C330000401E0020111E0010651D001004
:101E100007B5604601880A0A0230DF2AFAD1C9B242
:101E2000820804D3028840880004104300E0006860
:101E3000014A5050039007BDE8110020514343432D
:101E4000C9188C46110C83B24B4310B4040C614387
:101E500092B280B2504362431C041B0C001910BCA8
:101E600059411304120CC0185141614470470000DD
:101E700010B50148FEF77EFC404C0010132310B54E
:101E800010481C78FFF718FE0100012C0AD003DD72
:101E900080220D4800F02EF80C48FFF705FE0C4B91
:101EA000186010BD084C5422200000F023F82200D6
:101EB000084980322368002B00D121600434944209
:101EC000F8D1E9E753460000441E00204C330000DF
:101ED000401E0020711E001001480421014B1847CC
:101EE00010100020C91A0010014B1B681847000091
:101EF00010100020014B5B681847000010100020F4
:101F000010B5002800D110BD00F030F9FBE7C04645
:101F100010B5094A0300146884B0002C08D00122CF
:101F200000910648524203A9A047012004B010BD09
:101F300000F066F90020F9E7F41D0020011F0010F1
:101F400000BEFDE710B5FFF7FBFFC04670B5FFF719
:101F50000BFE074D074EB54209D20024013E761B09
:101F6000B60808CD984723000134B342F9D170BDBB
:101F7000344B00103C4B0010030010B5080011005A
:101F80001B68984710BDC046F0B5C64600B5437DF6
:101F900007000C001600002B46D0002A17DD0B7836
:101FA0000A2B24D000239846012E13D001252900A6
:101FB000635C01350A2B26D0B542F8D1464509DCD1
:101FC000A419013C23780D3B5A4253413B7580BC18
:101FD000B846F0BD4346E018A419F11A013C3B682D
:101FE000984723780D3B5A4253413B75EFE7037DF9
:101FF000002BD7D102210F483B689847012EDFD034
:1020000001239846D2E7631E5B5C0D2BD4D0884534
:1020100004DA4346C91AE0183B689847022105488C
:102020003B68A8469847C7E7036811002000984717
:10203000CDE7C0461C4D0010F0B54546DE464E4685
:102040005746E0B583B091461C0080460D00FFF76F
:1020500075FB0023304A12184B41002B02DA012293
:102060002E4B52422E4908008A4602F025FD0700F9
:102070006B1C03D1404602F0B5FC0500002C27D0B4
:10208000284E294B1C68002C18D04B46002B21D120
:10209000264B994602E02469002C0FD02368002BC0
:1020A000F9D04B461B68002B01D09C42F3D1200095
:1020B0002A004146B0472469002CEFD1002F26D1D9
:1020C000280003B0F0BCBB46B246A946A046F0BD0E
:1020D000174ED6E7154B99460A239B4602E0246922
:1020E000002CEBD02368002BF9D04B461B68002B4B
:1020F00001D0A342F3D12A0041462000B0476B46ED
:102100005A462000DA71D91D0122B047E7E7504650
:1021100002F0A2FCD4E7C04640420F00FFFFFF7F61
:1021200058100020891F0010E8190020F019002025
:10213000791F00100A4A1368002B05D10CE01A0021
:102140001B691032002B07D08342F8D1002902D13D
:1021500018691060196170470029FCD01060FAE717
:10216000E819002010B500F07FFA10BDF0B5CE469A
:10217000474680B583B06B460600DD1D2870FFF72B
:10218000DDFA0023194A12184B41002B02DA012212
:10219000174B524217490800884602F08DFC164B37
:1021A00081461C68002C14D0144F02E02469002CD6
:1021B0000FD02368002BF9D03B68002B01D09C4244
:1021C000F4D1200001222900FFF7DEFE2469002C53
:1021D000EFD14B46002B05D1300003B0C0BCB9464F
:1021E000B046F0BD404602F037FCF5E740420F0034
:1021F000FFFFFF7F58100020E8190020F019002091
:1022000070B5040002F0EEFB01230100050001227D
:102210002000FFF711FF084B1C68002C06D06368F4
:10222000002B05D098472469002CF8D1280070BDF8
:102230002469002CF3D1F9E7E81900207047C04663
:102240000022014B1A707047671F00204B79002055
:10225000FF2B0BD18B79002B08D1CB79012B05D12A
:10226000082A03D9024B8A7809301A707047C04691
:10227000671F00200120704710B5012913D11249B2
:102280005379107909781B0203430020994200D04A
:1022900010BD5378012B08D0022BF9D16422002104
:1022A0000020FFF7ABFB0120F2E7D37891781B0207
:1022B0001943480ADB0501D4012040427F238A05E7
:1022C000D20F1940FFF722FC671F0020004870471B
:1022D000E84D001070B5050014000120012909D156
:1022E00053780020012B05D1637912791B02134327
:1022F000072B00D070BD21002800024A9F3301F057
:1023000055FAF7E7404D001001230370004870476D
:10231000204D00104B780A781B0213438A7810B5C1
:1023200012041A43CB781B0613439622D200934221
:1023300000D010BD0022012011004042FFF7E6FB53
:10234000024B1860024B19607047C0468819002084
:102350008C19002010B5024B1878FEF7E5FA10BD75
:10236000681F0020154B70B51A68002A22D0EFF3C1
:10237000108172B610680028FCD0BFF35F8F002078
:102380000F4A596010701B68BFF35F8F186081F3AC
:102390001088002400250B4E3078FEF7B9FA00288B
:1023A00004D1002400252900200070BD3078FEF7FC
:1023B000BBFAF8E7FA240025A400ECE7181E002079
:1023C000691F0020681F002070B5040000200E0067
:1023D00001F00AFB002834D0002001F01BFB00288C
:1023E0002FD0FFF7ABF90023174A12184B41002BEF
:1023F00016DB164D280002F05FFB002821D00020DC
:1024000001F0F2FA00280FD101200021404200F033
:1024100001FD03246442280002F01EFB200070BD71
:1024200001220B4B5242E4E7002001F0F3FA0028AE
:10243000EAD021003200002001F0F6FA041EEAD1B1
:10244000E7E703246442E9E740420F00481F002009
:10245000FFFFFF7F10B5FFF771F900230D4A121837
:102460004B41002B02DA01220B4B52420B4C200055
:1024700002F022FB00280CD001200021404200F095
:10248000C9FC002001F014FB0028F5D1200002F067
:10249000E3FA10BD40420F00FFFFFF7F481F0020FE
:1024A000F8B5DE46574680B505000C00FFF746F943
:1024B0000023364A12184B41002B02DA0122344B1A
:1024C0005242344908008A4602F0F6FA002803D145
:1024D000C0BCBB46B246F8BD002001F085FA00281A
:1024E0004AD00026002C43DD2B4B9B4614E0A91953
:1024F000002001F017FB070001200021404200F0FE
:1025000089FC002001F0D4FAFFF718F9224BF619E4
:1025100018605960B4422BDD002001F023FBA71B9B
:102520000200B84200DD3A00002AE0D1012000217B
:10253000404200F06FFC002001F0BAFA002001F0E8
:1025400053FA002814D0002001F00CFB0028E1D140
:10255000FFF7F4F85B460F001A685B6800218446B9
:102560000E4812184B419F4202D8D3D19445D1D97D
:10257000504602F071FAABE700200021064B1860CC
:102580005960504602F068FAA2E7C04640420F0088
:10259000FFFFFF7F481F0020E011002020A107005F
:1025A00030B52A4C85B00021200002F075FA0028D1
:1025B0001CD1274B1A68002A16D0EFF3108172B68F
:1025C00010680028FCD0BFF35F8F012421485960B8
:1025D00002781B68D2B20470BFF35F8F00201860CE
:1025E00081F31088002A17D005B030BD01200021EA
:1025F000404200F00FFC002001F00CFA0500200022
:1026000002F02AFA002DEFD0134B1B68002BEBD001
:10261000124A10689847E7E7FEF77AFE0400FFF7D2
:102620008DF8FA220023920012184B41002B02DA97
:1026300001220B4B524201210291002101910949D3
:1026400020000091FEF768FECEE7C046481F00203C
:10265000181E0020691F0020881900208C190020F6
:10266000FFFFFF7F65230010D02310B51B0684B049
:102670001C68FEF74DFEFEF749FFA04202D0002085
:1026800004B010BD294B002100201B7801F05EFD35
:1026900027480368002B45D00120FEF7C7FBFF2326
:1026A000244C254920701840FEF758F92078012164
:1026B000FEF71CF90520FEF73FF9002824D1082277
:1026C00000211E48FFF710FCFEF722FE0400FFF772
:1026D00035F8FA220023920012184B41002B02DA3F
:1026E0000122174B5242012102910021019115490B
:1026F00020000091FEF710FE0028C0DB12480121E7
:10270000FFF718FD0120BBE70120FEF7BDF80B4BDA
:1027100001001800FEF7ECFB002205200B49FEF734
:1027200047F9EBE7FEF7C8FBB6E7C046A04F00103D
:10273000481F0020681F0020A1250010181E00203F
:10274000FFFFFF7F6523001020100020552300109D
:1027500000487047844E001000487047304E00100B
:1027600010B5040017480378002B20D0002C06D1A8
:10277000154B16484380063BFF3B038010BD052CDC
:102780001DD8134BA400E05812490123013804E07E
:1027900001330A800231142B0DD0C25C002AF7D11C
:1027A000C022DBB25B00920008481343E5E7112129
:1027B00000F01AF8DAE7CA2304489B00DDE700209E
:1027C000DCE7C046501F002009040000C0190020AB
:1027D000184E0010C219002010B5024800F0D8F8B9
:1027E00010BDC046381E002030B54B1E012900D157
:1027F000A7E0664A11780D092C0030349F2900D9D2
:10280000A2E00470012B00D1BEE00F21147821401A
:102810000C003034092900D998E04470022B00D113
:10282000B2E054782509290030319F2C00D990E07E
:102830008170032B00D1A7E00F2121400C00303420
:10284000092900D987E0C470042B00D19CE094785A
:102850002509290030319F2C00D97FE00171052B1B
:1028600000D191E00F2121400C003034092900D91A
:1028700076E04471062B00D186E0D4782509290042
:1028800030319F2C00D96EE08171072B00D17BE0A5
:102890000F2121400C003034092966D8C471082B5F
:1028A00000D171E014792509290030319F2C5FD8BF
:1028B0000172092B68D00F2121400C003034092906
:1028C00058D844720A2B5FD0547925092900303139
:1028D0009F2C52D881720B2B56D00F2121400C0017
:1028E000303409294BD8C4720C2B4DD0947925096A
:1028F000290030319F2C00D9073101730D2B43D0B3
:102900000F2121400C003034092901D937310C0046
:1029100044730E2B38D0D1790C09220030329F2914
:1029200000D9073282730F2B2ED00F220A401100DC
:102930003731092A01D830321100C173102B23D04E
:1029400010300023037030BD07345AE737310C00D4
:1029500063E707316CE737310C0074E707317DE737
:1029600037310C0085E707318EE737310C0095E7EA
:1029700007319DE737310C00A3E70731AAE737316C
:102980000C00C4720C2BB1D1C018DAE7381E00203D
:1029900010B588B004000D2200216846FFF7A4FAA4
:1029A0000D22002104A8FFF79FFA4B236A466846D0
:1029B000137004A90D2202F047F815210822200007
:1029C0006944FFF797FA08B010BDC046F8B500F0AB
:1029D00047F90C23194DFF22AB6705201849FDF775
:1029E000E7FF184C402200212000FFF77DFA402726
:1029F000002301262121144A66702783A2601360F8
:102A000063545F31618445396354104A10496360EF
:102A1000E2602787A1620B606362E26202F064F801
:102A200080239B052E64EB6490230A4A0120EA5020
:102A30008022094B5202DA64F8BDC04600001150F2
:102A4000F9040020F41900208400105000011050F7
:102A50008000105010D001000020115010B501214D
:102A60000520FDF743FF10BD10B5002200210248EC
:102A700000F016F910BDC046141A0020044B19705E
:102A8000002904D080219023024A8902D150704746
:102A9000621F0020002011500B785B0602D14B789A
:102AA000052B00D070478A78014B1A60FAE7C046C0
:102AB00000001150F0B5C646C87800B58007830FF6
:102AC0001800012B60D08F780A794B797F2139402B
:102AD000FC091B024E001343334D32195201AA1850
:102AE000977001276740577000275B055B0DD77013
:102AF0001383D076B846CA00012C32D02B4FBC4687
:102B00008F016244BC46AC446746BA6047461760D2
:102B1000002932D0264AC90090466246414451609D
:102B20003F223F339343022837D0224937190A689E
:102B30007F01D3180B602049EF19FA608B422ED821
:102B400036197601AD19EB7E1C499B064A401343AA
:102B50008022120613436A681360012080BCB846C5
:102B6000F0BD174FBC468F016244BC46AC4467467B
:102B7000BA6247461760002908D1002364012C1966
:102B80006360104BE360E8E70020E7E70B4AC90009
:102B90009046624641445162C2E75B00C5E7FEF7DA
:102BA000DDFFFA68CCE7C046F4190020840010501D
:102BB00004001050FC1D0020FF0F105000001050AA
:102BC000800010500001105010B501F08DFF10BDB5
:102BD00010B57F200C0020404000E40911000019CE
:102BE0001A00034B4001C01800F05AF8012010BD34
:102BF000F41900207F23180000B5084083B00B4271
:102C000004D14B424B41084A013393668022C909E3
:102C10004000064B401840010021C018120101F08D
:102C20005BFF03B000BDC04600201150F419002026
:102C30007F22130010B50B400A4200D110BDC90914
:102C40005B005B1804485B01C018002300220349A5
:102C5000C37001F041FFF1E7F4190020FFF7FFFF17
:102C600080220A4B520410B51A60094B09491A60B8
:102C700010000B689843FBD18022002152010648C6
:102C8000FFF732F90922054B5A6710BD00E00040FA
:102C900000F0004008C0004000001050000011503B
:102CA000002310B5C3820133828283760161040060
:102CB00001F0E2FE002804D080219023074A890217
:102CC000D150200001F0D0FE002802D0012323774C
:102CD00010BD200001F0F8FEFAE7C04600201150B8
:102CE0007047C0467047C0460020704700207047BC
:102CF0007047C0467047C0467047C0467047C046E0
:102D0000024B5878431E9841C0B270479814002077
:102D1000024B18784007C00F7047C0469814002037
:102D2000F0B5D6464F464646C0B52F4B07009A46EB
:102D30001B780E00FF2B50D1002941D000215422D6
:102D40002A48FFF7D1F80022294C2A4B20001A709C
:102D5000FEF7B2F8284B1C60284C2000143CFEF70C
:102D6000B9F8200001F0FAFD254B264D1C60264BDA
:102D7000002B04D02800FFF7C7FA244B1860244921
:102D8000002489462149002388462A7810E04346DA
:102D90001B6862019B18002B12D05B68002B0FD0C0
:102DA00098472A780134E4B2511C2300A14209DB80
:102DB000A242ECD89B1A5B014B445B68002BEFD11D
:102DC00000200BE05346310038001F70FFF7FEFD76
:102DD0000028F5D03800FFF741FE0120E0BCBA46DC
:102DE000B146A846F0BDC0465410002098140020FB
:102DF00090140020631F0020EC1400204C100020D1
:102E0000F0140020611F002009230010E8120020A8
:102E1000404F0010F0B5DE4657464E464546E0B5F9
:102E2000C84B91B002931B78FF2B00D13EE1C64BFB
:102E3000C64E9B465F46C64B0DAC0193C54B0093F7
:102E400035686A69EFF3108172B61368002BFCD005
:102E5000BFF35F8FA9612800210001F0AFFB6A6911
:102E6000AB69BFF35F8F0021116083F310880028E6
:102E700000D11BE16378082BE2D89B00FB589F46EA
:102E80006368002BDCD0A0689847D9E77F222179BE
:102E9000AF4D0A405300EB189846C809804440469D
:102EA0000123303005799D430571057903339D4336
:102EB0000571002A00D100E14346A74A1B7D127824
:102EC000934200D3EFE0A54A5B011568ED18002D91
:102ED00000D1EBE0A36862792078AD69A847AFE73D
:102EE0009F4A1378002B00D1E0E01378013BDBB25E
:102EF00013701378002BA3D10122954D01212B785B
:102F0000042013432B703423EA5C8A43EA54EA5CBE
:102F10008243EA540133EA5C8A43EA54EA5C82431E
:102F2000EA54237800209B4600F09EFC602223791F
:102F30001A40602A00D1EFE0402A00D1F5E0DB061C
:102F4000DB0E012B00D113E1022B00D1C7E0002BD7
:102F500000D0E1E0202A00D11CE2002A00D0DBE012
:102F60006379092B00D9D7E07E4A9B00D3589F464E
:102F7000774D2B78DB0700D462E7FFF7BFFE5FE7F2
:102F8000019BDB78DB0700D45AE76068FFF7AAFEF5
:102F900056E76F4D2B78DB0700D451E72878000700
:102FA000C00FFFF7A9FE4BE723786A4999468B4685
:102FB000694B6A4998468A4639001A784746002381
:102FC000B04600254E46894610E053461B686A010C
:102FD0009B18002B00D176E0DB68300098473A78E8
:102FE0000135EDB2511C2B008D4244DC9542ECD3EF
:102FF0009B1A5B015B44EFE7237858499946564B8F
:103000008A4698463100BB464E461A780025002372
:10301000474689460FE053461B686A019B18002B00
:1030200055D0DB68300098473A780135EDB2511C35
:103030002B008D4207DC9542EDD39B1A009A5B0171
:1030400094466344EDE7019D542200212800FEF7D9
:103050004BFF1022FF214448FEF746FF28002022A4
:10306000FF2114304E465F46FEF73EFF00F0F2FBB4
:10307000FFF740FEE4E6364D542200212800FEF71B
:1030800033FF1022FF21281DFEF72EFF28002022EB
:10309000FF21143046464F46FEF726FF00F0DAFBCC
:1030A0002379AB70CCE6501C984213DA11B0F0BC17
:1030B000BB46B246A946A046F0BDA3686279207817
:1030C00000F0E6FBBCE646464F46214DE6E74E469D
:1030D0005F46CBE71F4D9B1A5B015D19FAE6702333
:1030E000217A0B4218D1C80982460F330B405B008E
:1030F00098461948EB1853441B7D00789946834243
:1031000066D216485B01006881469944002A00D1C6
:103110005FE14B46002B68D120780021FFF76AFD64
:1031200080212078FFF766FD8AE6104800F09CFBBE
:10313000012158460EAAFFF7CDF8002800D07FE6FF
:10314000EAE7C04654100020984E0010F01400200A
:1031500098140020404F0010611F0020E81200204A
:10316000631F0020BC4E00109C140020D5220010CC
:10317000237A0F2BD0D8CF4AEB181B791578AB42A6
:103180003ED3691C9942C7DB5D1BCB4B6D01ED182B
:10319000686900F069FB012158466B690EAA9847DF
:1031A000002800D04CE66022150023791D401A4209
:1031B000B2D163790A3B012BAED800F055FB63799D
:1031C0000A2B00D199E158460EA900F0D9FA37E64A
:1031D000431C4B4500DAF7E04B461B1A5B0199464E
:1031E000B5488144002A00D1F3E04B46586900F00D
:1031F0003BFB4B46012158465B690EAA98479CE76A
:10320000AE4A5B011568ED18002DC1D184E7A379A2
:1032100099466B789945D6D06B78002B00D033E176
:103220004B466B70002B00D12BE148460138C0B2F1
:10323000FFF792FA002800D17EE143780793022B32
:1032400000D079E10122C179B1468B1149111340B7
:103250000A40302112015B0113432A78A8468A43B1
:1032600013432B7009239A4682445646BA46C378C4
:1032700082781B021343C31805938E4B04938E4B25
:1032800008938E4B09938E4B0A93059BB34200D84B
:1032900055E1737801220B2B03D13378F278F618BD
:1032A0007378042B00D044E1059B00279B1B9BB245
:1032B0000693049B0B921D78002303931BE0099A4D
:1032C0007B011568ED18002D00D132E13100584620
:1032D0002B69069A98478446082803D9069A8242A1
:1032E00000D313E1049B01371D78FFB26B1C0397D9
:1032F0009F4200DD1DE1BD42E1D8039B5D1B089BA1
:103300006D019C466544E1E76B780CAA02321370AC
:10331000584601230EA900F049FA91E5E3881A0AFC
:10332000D8B20F2A00D9F7E666499300CB589F46DA
:103330000EA800F09FFA5846A179FFF795FB0222EC
:103340002B7813432B707BE5E388012B00D0E3E659
:1033500008222B78584693430EA92B7000F010FAE0
:103360006EE5022029780CAB9A1C8B068908DB0FCE
:1033700001400B431380584602230EA900F016FAB1
:103380005EE5E388012B00D0C6E608222B781343C4
:103390002B7018E7237A0F2B00D9BDE6EB181D79A7
:1033A000444B1B789D4228D2444B6D011B685D192C
:1033B000002D00D1B0E6686900F056FA01215846A8
:1033C0006B690EAA9847B8E6002A00D0A4E600234D
:1033D000994662790220130003928343012B15D092
:1033E000002A00D098E62B004344534430331B7925
:1033F0000CAA9B07DB0F0232BCE75A1CAA4200DA78
:103400008AE6ED1A2C4B6D01ED18D4E7E388002B0A
:1034100012D1029B1878039B012B23D0FFF7EAFB04
:1034200043460221EB18534430331A790A430121F1
:103430001A711A790A431A714B46002B00D1FFE426
:10344000586900F011FA4B4601215B690EAA5846F3
:103450009847002000F008FA3523EB5CDB0700D525
:10346000EEE4B0E6FFF7E4FB43460221EB185344D9
:1034700030331A798A431A711A7903998A431A7177
:10348000DAE7FFF737FC9EE600215846FFF7F6FA29
:103490005846FFF799FBAB78074903930491054B16
:1034A000064998461A780591002329001D008A468E
:1034B0001BE0C046611F0020404F0010E8120020B2
:1034C000AC140020E44E0010059B6A011B689B1899
:1034D000002B4DD0DB685846984743461A78013593
:1034E000EDB2511C2B008D422EDC9542ECD39B1A81
:1034F000049A5B0194466344ECE70CAB9A1C584673
:1035000001230EA9157000F051F999E40B9A012AD4
:103510004FD0002A3CD00023B07804E00133DBB266
:103520000F71934234D2C118C9B241440D79FF2DB5
:10353000F4D04E464546574600236B70ECE54E46A8
:103540005746FFF7D5FB3EE655465422002128009A
:10355000FEF7CAFC1022FF21281DFEF7C5FC28003B
:103560002022FF211430FEF7BFFC039BAB7057E60F
:103570005546FAE7FEF7AAFE021E00D1CCE5D37845
:1035800091781B020B4358460EA900F00FF9D4E5C1
:1035900065463B002A0031000A9800F07FFEAC46E9
:1035A000049B039A1B7866440133934200DB6CE66C
:1035B000BFE7174B29699942ADD1079AABE7FFF7EF
:1035C00093FB021E00D1A7E5584613780EA900F020
:1035D000EDF8B2E52189FFF7C3F8021EF4D19BE5AF
:1035E000022A0FD0FFF782FB021EC8D194E5FFF735
:1035F000AFF8021E00D18FE5122358460EA900F045
:10360000D5F89AE5FFF7A8F8021EB8D184E5C046C0
:10361000653C0010F8B557464E46DE4645460C0060
:10362000E0B516001F00002A3CD0702398461E4BC0
:1036300000259B461D4B9A461AE05B461B782000EE
:1036400099465346997800F0EBFD00281CD02100E4
:103650004846FFF72FFA002816D0A378DA09012A86
:1036600019D00A9A013513702378E418B54219DA93
:103670006378052B08D1E3789B079B0FBB4203D1EE
:103680004246A3781A42D8D00020F0BCBB46B246CE
:10369000A946A046F8BD0B9A013513702378E418AB
:1036A000B542E5DB0120F0E754100020981400201B
:1036B000702270B58B780C001A4201D0002070BDCA
:1036C000064B20001D78064B997800F0A9FD0028D4
:1036D000F4D021002800FFF7EDF9F0E754100020A6
:1036E000981400200B007F2010B51840DB093433FC
:1036F0004000044AC018044B1168C01800F04CFD8B
:1037000010BDC046EC140020981400200B007F2050
:1037100010B51840DB0934334000044AC018044B8C
:103720001168C01800F060FD10BDC046EC14002008
:103730009814002070B57F240F480C4064000419D1
:10374000CD09641930342079C00701D5002070BD3F
:10375000012625790948354300782571FFF738FAA5
:103760000028F4D101222379934323712379033272
:1037700093432371EAE7C0469814002054100020B8
:1037800070B5094C0600082220000D00FEF7B2FBC0
:1037900000238021E360A3602B783000994300224E
:1037A0000023FFF7C7FF70BD78140020F8B5CE46A0
:1037B00047469046254E80B58146082230000D00D0
:1037C0001F00FEF797FB4346B3600023F381EC79BB
:1037D000AB7924021C43231CBC4200D93B1C9FB282
:1037E000B381002C0DD0002F17D04246002A2BD0D9
:1037F000402F1BD89FB233787F2B1CD80021144A4E
:103800000FE080212B780022994348460023FFF7E0
:1038100091FFC0BCB946B046F8BD7F230022317885
:1038200099433B004846FFF785FFF2E740239FB2EC
:1038300033787F2BE2D9064C3A0041462000FEF750
:1038400059FB80212200ECE70020E2E778140020F9
:103850003814002010B5142200210248FEF744FB62
:1038600010BDC04678140020014B18617047C04657
:103870007814002010B5054C010008222000FEF746
:1038800039FB0023A360E36010BDC046781400201C
:1038900070B5384C1D0023780600DA09C9098A4240
:1038A00010D00020002D00D070BD21003000FFF7A7
:1038B000F3F82369002B03D022000321300098473E
:1038C0000120F1E77F2B06D8A068002834D02A0019
:1038D0002949FEF70FFBE289A1685219E38892B2E9
:1038E0004919E281A160934214D03F2D12D9A389D6
:1038F000981A051C80B240282AD82078ADB27F28BB
:1039000028D800219A4232D01B4A2B003000FFF702
:1039100011FFC9E72369002B05D0220002213000E6
:10392000984700280AD0802123780022994330004C
:103930000023FFF7FFFEB7E70020B5E700213000C6
:10394000FFF758F930008021FFF754F90120ABE769
:103950004025D2E79A4207D0074C2A002000FEF704
:10396000C9FA80212200D0E780210022CDE7002281
:10397000CBE7C046781400203814002070B504004E
:10398000FFF7BEF9002800D170BDFFF7C1F900288C
:10399000FAD1C8236343124DEE18F1780029F3D011
:1039A00010335D19280000F0F3FD3F28ECD900200A
:1039B000F178FFF797FE0028E6D0280000F0E8FD38
:1039C000F1783F2807D9074BE201D21800204023A5
:1039D000FFF7B0FED8E70020FFF798FED4E7C04617
:1039E00070130020EC12002010B50400FFF788F9D6
:1039F000002801D1002010BDFFF78AF90028F9D175
:103A0000C8226243024B01309B181B791840F2E731
:103A100070130020C82310B543430248181800F063
:103A200099FD10BD80130020F8B5C82480234443BD
:103A30001C4F103405003C195B029A4200D31A4A0D
:103A4000200092B200F008FE0600FFF759F90028A6
:103A500001D13000F8BDFFF75BF90028F9D1C82388
:103A60006B43FF18FB78002BF3D0200000F090FD93
:103A70003F28EED90020F978FFF734FE0028E8D07F
:103A8000200000F085FDF9783F2807D9074BEA01AF
:103A9000D21800204023FFF74DFEDAE70020FFF7A1
:103AA00035FED6E770130020FFFF0000EC12002067
:103AB000F8B50400FFF724F9002801D10020F8BD73
:103AC000FFF726F90028F9D1C82565432E00134FCA
:103AD0002436F619300000F03DFD0028EED07F19A5
:103AE0000020B978FFF7FEFD0028E7D00C4DE40177
:103AF000651929004022300000F0AEFDB978041E9F
:103B000008D003002A000020FFF714FE0028D5D0BB
:103B10002000D4E70020FFF7F9FDCFE77013002065
:103B20002C13002070B5C82444430C4B0500E41846
:103B300080235B029A4200D3094A200092B200F02F
:103B400051FE0600200000F005FD3F2801D830009E
:103B500070BD2800FFF7ACFFF9E7C04694130020C2
:103B6000FFFF0000C82310B543430248181800F0B7
:103B70000FFD10BD94130020F0B50025184C83B044
:103B8000C82200212000FEF7AFF9164B21001D705E
:103B9000FF236371E1235B02A3602000082340221E
:103BA000A37338310095073B103000F09DFC2700CF
:103BB0000123210020002600402278310093B837ED
:103BC000243000F091FCC0363800FDF775F9300064
:103BD000FDF772F9E56127622663656303B0F0BD06
:103BE000701300206C1300200A4A116B136A00291D
:103BF0000CD0002B07D00023D36153631363002341
:103C000013620120704753631363FAE7002BF8D067
:103C1000D161F4E77013002070B50F4C052200212C
:103C20002000FEF761F90D4D2B78DA0707D50C4C13
:103C30009B070CD50121200000F0B0FE70BD2000D4
:103C4000103000F08BFE2B78054C9B07F2D420003F
:103C500000F084FEEEE7C046701300206C130020D5
:103C600094130020F0B54B79060083B0022B02D1EB
:103C70008B79022B03D00025280003B0F0BD204F24
:103C8000BB78002BF7D18B7809253B700C780C1989
:103C90006378242B07D00CE02378E4185D1963784F
:103CA000ADB2242B05D19542F6D90020FFF766FE70
:103CB000E2E71A00052B15D0042AF6D163790A2B06
:103CC000F3D1104B27780193013300933000022386
:103CD000E119023AFFF79EFC0028CCD00E35ED1911
:103CE000ADB2E2E721003000FFF7E2FC0028C2D0CD
:103CF000A3787B7023785D19E4186278ADB2DBE7B6
:103D00007013002072130020F8B56023140012789D
:103D1000050013400020202B07D1304A6379277912
:103D200016781B023B439E4200D0F8BD6378222BDD
:103D30001AD007D8202B34D0212BF6D101293ED020
:103D40000120F2E7232BF0D1012940D00329F7D13C
:103D5000234B002BF4D0E178A3780902002019430B
:103D600000E000BF0120E0E7012930D00329E7D1BE
:103D700001252E00A378E478023924021C43147133
:103D8000264024321000714000F008FE154B002B35
:103D9000D6D06208002031002A4000E000BF012098
:103DA000C3E701290BD00329CAD10F4B002BC7D081
:103DB000083200201100FEF7ADFA0120B5E7072315
:103DC00021002800094AFFF7F1FC0120ADE721009E
:103DD0002800FFF7D5FC0120A7E7C046701300209C
:103DE00000000000000000001523001078130020E0
:103DF000F0B54F464646D646C0B5364D8046EA78C1
:103E00000C001F008A423CD0AB788B4210D00020BF
:103E1000E0BCBA46B146A846F0BD2F4B002B04D0FB
:103E20002E4800F0ADFB002851D00020FFF7A6FD82
:103E3000AB78A34201D00120EAE7294B002B02D046
:103E4000002000E000BF0020FFF732FE0028F2D182
:103E5000244C200000F07EFB0028ECD1002FEAD09B
:103E6000BF06E8D1243C4046A178FFF73BFC002880
:103E7000E1D0002300224046A178FFF75BFC01203F
:103E8000C6E79AB210239A46174EAA44310050460C
:103E900000F0A8FC154B002BBFD06B79FF2BBCD0DA
:103EA000002FBAD0F219914603E001364E45B4D046
:103EB0006B7932789A42F8D1504600F061FB0028C5
:103EC000F3D15346103B597900E000BFEDE700E025
:103ED00000BFAAE77013002000000000801300203C
:103EE0000000000094130020EC12002000000000ED
:103EF0009322F0B5134C85B0002120009200FDF70D
:103F0000F3FF23002000802640270F4D4D3376001D
:103F1000FF332930029500930022002300210397EC
:103F20000196FF3000F0D4F94035201D28340023DD
:103F300001220021039702950196009400F0C8F930
:103F400005B0F0BD34160020B415002010B5054CA6
:103F5000200000F0F3F920002538FF3800F0EEF9DA
:103F6000012010BD5C17002070B5084C0025200012
:103F70003130FF30257000F0F1FC20000C3000F0F3
:103F8000EDFC2A23FF33E554657170BD3416002023
:103F9000F8B557464546DE464E46E0B54B79804675
:103FA0000F00FF2B5BD1404B99462A234946FF3334
:103FB000CB5C002B53D14E79002E50D1BB783C788E
:103FC0000B703B793C19002B46D098235B004B4487
:103FD0009A460C234B449B46A51803E0AC423BD2C7
:103FE0002378E4186378052BF8D1AC4234D2210051
:103FF0004046FFF75DFB002831D0A3780136F6B2CA
:10400000DB09012B32D0504600F0A8FC2A23494698
:10401000A278FF33CA54637922791B021343234ADF
:104020005B0594465B0D942163445A4253414A46D2
:1040300002204900525C5B00824313434A465354BA
:1040400051464046083900F0E3F9002807D02378AC
:10405000E4183B79B342C5D8E01B80B200E00020F1
:10406000F0BCBB46B246A946A046F8BD584600F093
:1040700075FC5A46A3780C3A5371637921791B0277
:104080000B430A495B058C465B0D634459424B4127
:10409000022011795B0081430B4359460020083907
:1040A000137100F081F9D2E73416002000FEFFFF03
:1040B000F8B52A2506001F48FF35455D1F008D42D3
:1040C00015D043798B4201D00020F8BD1A4B002B4C
:1040D00004D039040020090C00E000BF174C300068
:1040E000210000F061F900281DD00120EDE79A239E
:1040F0005B00C35A002B0DD1114B002B04D00020C4
:104100001049BAB200E000BF30000F4900F080F95A
:104110000120DAE796235B00C1583130BAB2FF3094
:1041200000F060FBE8E73A002100300000F008F9F9
:104130000120CAE7341600200000000038160020D5
:1041400000000000B41500205C17002000B503003B
:1041500083B0002910D00020012B07D80A78002A4C
:1041600004D00C48C2540120012A01D003B000BD84
:104170001800FEF7D5FDF9E701236A46002001A9E2
:104180009380FEF7CDFD0028F0D00122014B1A707C
:10419000ECE7C0468C140020037870B5DB07040000
:1041A0000E00DD0F002B17D103785B0701D5280027
:1041B00070BD01213000494200F076FC2378DB0716
:1041C000DD0F002B0AD123785B0708D40422237863
:1041D00001251343237002E00025E8E700253000A5
:1041E00000F03AFCE3E7C04670B50C000121060080
:1041F0004942200000F058FC33785B07DD0F002BAC
:1042000004DB200000F028FC280070BD3378DB07B9
:1042100004D40422337893433370F2E70025F0E7A7
:10422000437902791B021343C2785B0592075B0D49
:10423000920F022A1DD0032A0CD00020012A08D197
:1042400002394A425141124A9446614499424041DE
:10425000C0B2704702394A1E91410E4A494211408C
:104260008022D20094460020614499424041C0B26D
:10427000EFE7022905D0002040229A424041C0B217
:10428000E7E7054A981843425841C0B2E1E7C04603
:10429000FF03000040FCFFFF00FEFFFF8A1870B51F
:1042A000914207D27F264C78052C04D00C7809194E
:1042B0008A42F8D870BD34008D782C40640004190F
:1042C000ED0963550C7809198A42ECD8F2E7C0462B
:1042D000F0B5C64600B582B0150008AA40CA040071
:1042E00017886A46928D012090460A002178024084
:1042F00081432000114321703A00009331000123D3
:10430000083000F0F1F8002E01D0002F08D10A9BF0
:10431000012063604346638002B080BCB846F0BDB4
:1043200026001C363000FCF7C7FD0023002D01D00D
:10433000330000266361A661E9E7C04601207047AB
:10434000F8B502240B7807001C4063425C41144B13
:1043500064421C40134B08009C4608300D001600B8
:10436000644400F0F7F8002807D1002E05D034424D
:1043700003D101242B781C4201D00020F8BD380065
:104380006978FFF7AFF90028F7D02B781C42F4D1F9
:104390000023002238006978FFF7CCF9EEE7C04629
:1043A00040FEFFFFFF010000F8B50D0008350600D4
:1043B00028000C0000F0CEF8002803D00127237855
:1043C0001F4201D00020F8BD30006178FFF78AF964
:1043D0000028F7D028006288616800F03DF9237852
:1043E00005001F4000280BD0002FEBD103006268AE
:1043F00030006178FFF79EF90028E3D02800E2E75B
:10440000002FDFD130006178FFF780F9DAE7C0468E
:10441000F8B5CE46474680B58A8906000C000B7871
:10442000002A07D101251D4240D00020C0BCB9465A
:10443000B046F8BD9B0733D42A4B40259946270048
:104440000837380000F0A4F88542EED8012223781E
:1044500090461A42E9D130006178FFF743F900280D
:10446000E3D0380000F094F8424623781A408542A1
:1044700031D8002AD9D14A46638802401D1C934294
:1044800000D9151CADB200226178002D00D0626801
:104490002B003000FFF74EF90028C6D02800C5E7F2
:1044A000FE2380251B029946AD00C8E74978FFF737
:1044B00019F90028B9D023781D42B6D163880022AB
:1044C0006178002B00D062683000FFF733F90028D4
:1044D000ABD06088AAE7002AA7D130006178FFF747
:1044E00015F9A2E7C0FF0000F0B5C64600B504000C
:1044F0006846057E8020884617001E000002824222
:1045000026D8E068002803D00121494200F0CCFA07
:104510002069002803D00121494200F0C5FA434632
:10452000236073045B0CED031D430023E06863818B
:10453000A780E5802381002801D000F08DFA206952
:10454000002801D000F088FA012080BCB846F0BDF8
:104550000020FAE710B5048941898288A3B288B2A5
:104560008C4207D31B1A9BB2101C9A4200D9181C0C
:1045700080B210BD5100091A5B189BB2F4E7C04627
:1045800003894089181A43425841C0B27047C04657
:1045900010B5048941898288A3B288B28C4207D3BE
:1045A0001B1A9BB200209A4201D9D21A90B210BDB8
:1045B0005100091A5B189BB2F4E7C04670B50400BD
:1045C00000690E00002803D00121494200F06CFA76
:1045D00025896089A288A9B283B2854232D3CD1AD7
:1045E000ADB2002D28D0AA4208D291422FD3891A09
:1045F0008BB263819A4203D89B1A9BB29A42FBD931
:10460000E28821685204520C53433000C918FDF768
:1046100071FC63890125591C89B2A2888B420DD98E
:1046200000215200891A89B220696181002801D0D5
:1046300000F012FA280070BD618989B252009142DF
:10464000F2DBEFE75500ED1A4D19ADB2C9E7891855
:104650008BB26381CEE7C046F0B546464F46D6469C
:10466000C0B50600006989469046002803D00121A4
:10467000494200F019FA31897289B5888BB294B237
:10468000914254D31F1BBFB2002F4AD0BD4205D266
:10469000AB4251D25B199CB22F0074814346B8459E
:1046A0003DD89FB2A54203D8641BA4B2A542FBD952
:1046B000F28831685204520C904662432B1B9BB225
:1046C000891842469F4225D953439BB21A00484657
:1046D0009A46FDF70FFC434648467D1B64195C4330
:1046E00031685044A2B2FDF705FC7189B588CB1939
:1046F0009BB26A00994216D99B1A9BB230697381AA
:10470000002801D000F0A8F93800E0BCBA46B14654
:10471000A846F0BD48467A43FDF7ECFBE5E73B1CB5
:10472000BFE773899BB26A009342E7DBE4E76F005F
:104730003F1BDF19BFB2A7E75B1B9CB2ACE7C046CB
:10474000F8B50400C0680E00002803D001214942DA
:1047500000F0AAF9258920896189A288ADB283B2C7
:104760008FB2884229D3DB1B9BB29A4209D8E779E2
:10477000FF0906D1E068002801D000F06DF938008B
:10478000F8BD2B0095421DD39B1A9BB29342FBD2DE
:10479000E28820685204520C53433100C018FDF7E0
:1047A000A9FB6B1C9BB2A2889D4217D90023520023
:1047B0009B1A9BB201272381DCE75100C91B5B18C0
:1047C0009BB2D2E7E28820685204520C5343310076
:1047D000C018FDF78FFB0135A288ABB2520093429F
:1047E000E8DBE5E7F0B54E465746DE464546E0B520
:1047F00089460600170083B0002A67D0C0680028E9
:1048000003D00121494200F04FF93389F2799BB27C
:1048100098467389B5889BB2D20940D198455ED23B
:104820006A00D31A43449BB2AB425DD2EB1A1A1C06
:104830009BB2BB4200D93A1C97B27B1B9BB201933F
:10484000F3885B045B0C9A464346DB199BB29B469C
:104850004446A84503D3641BA4B2AC42FBD25346E2
:10486000634330682D1BADB2C018BD424BD35246D6
:1048700049467A43FDF73EFBB3885B00D84501D833
:104880009B4503DB5A46D31A9BB29B465B463D00D1
:104890003381F06800281AD000F0DEF817E0F288C3
:1048A0005204520C9246AF4220D298454DD3424614
:1048B000D21A92B26900781B80B2D21901908A4252
:1048C00033DA4346FB189BB29B46C1E7002528001C
:1048D00003B0F0BCBB46B246A946A046F0BD424676
:1048E000D31A9BB2AB42A1D30025D2E7002DD0D082
:1048F0007F1B574398465A19002392B2B9449346F6
:104900002F000193A4E753465D43ADB22A00494608
:10491000FDF7F0FA019B2900E21853465A4330682C
:1049200092B24944FDF7E6FAA6E75A1992B29346C5
:10493000D21B92B2904693420CD94346591A8BB27D
:104940009846FB189BB29B4682E76900CA1A42440C
:1049500092B2B0E7914200DD7AE7EEE710B50400CD
:10496000C068002803D00121494200F09DF8206969
:10497000002803D00121494200F096F80023E068A6
:1049800063812381002801D000F066F820690028A7
:1049900001D000F061F8012010BDC04670B50400E0
:1049A000C0680D00002803D00121494200F07CF8C6
:1049B0002069002803D00121494200F075F87F21C9
:1049C000E379ED011940E0682943E171002801D045
:1049D00000F042F82069002801D000F03DF80120E5
:1049E00070BDC04610B583070AD00300032102E062
:1049F00001330B4205D01A78002AF9D1181A10BDDC
:104A0000030019680C4A0D4C8A188A4322420FD1C0
:104A10005968094A04338A188A43224208D15968DE
:104A2000054A04338A188A432242F1D000E0013358
:104A30001A78002AFBD1E1E7FFFEFEFE808080802D
:104A4000F8B5C0460000000001B40248844601BC2D
:104A5000604700BFC102002001B40248844601BC87
:104A6000604700BF2502002001B40248844601BC13
:104A7000604700BFF50B002001B40248844601BC2A
:104A8000604700BFCD0B002001B40248844601BC42
:104A9000604700BF110F002001B40248844601BCEA
:104AA000604700BFC100002001B40248844601BC39
:104AB000604700BF9901002001B40248844601BC50
:104AC000604700BF0101002001B40248844601BCD8
:104AD000604700BF850C002001B40248844601BC39
:104AE000604700BF350C002001B40248844601BC79
:104AF000604700BFF1030020911B0010BD1B001098
:104B0000091D0010D91E0010711D00107D1E00101F
:104B1000311C0010D91B0010F91B00100D1C0010D7
:104B2000690E0010151C001035120010591B0010E2
:0C4B3000C9080010B1020010D9270010C5
:104B3C000A2A2A2A2050414E4943202A2A2A0A00AE
:104B4C000A0000004E6F207370696E6C6F636B739C
:104B5C002061726520617661696C61626C65000030
:104B6C004E6F2075736572204952517320617265C6
:104B7C0020617661696C61626C65000048617264E9
:104B8C007761726520616C61726D20256420616CA7
:104B9C00726561647920636C61696D656400000005
:104BAC004861726420617373657274006D6973730C
:104BBC00696E6720646F75626C652066756E6374D0
:104BCC00696F6E0052656C6561736500626F6F741E
:104BDC00325F77323571303830000000302E3100C2
:104BEC00322E312E310000007069636F5F77000048
:104BFC00666F726567726F756E645F6261636B6717
:104C0C00726F756E64000000417072203232203277
:104C1C003032350055534220737464696E202F2056
:104C2C007374646F75740000526173706265727294
:104C3C0079205069000000005069636F000000008B
:104C4C00426F6172642043444300000052657365F7
:104C5C0074000000556E68616E646C656420495286
:104C6C005120307825780A00657020253032582084
:104C7C0077617320616C726561647920617661691A
:104C8C006C61626C6500000043616E277420636F79
:104C9C006E74696E75652078666572206F6E20691A
:104CAC006E6163746976652065702025303258001A
:104CBC0006005250D3F07542D04B001006005250F3
:104CCC00E182887FD84B0010060052503ABCA911E3
:104CDC00E84B001006005250ABB36053EC4B001085
:104CEC0006005250BBFF3CB6F44B0010060052506D
:104CFC00861C0302FC4B0010060052505422A29D4D
:104D0C00144C001005005250DE65F468445F00102E
:104D1C000D0A0000000000003D2200100000000001
:104D2C00412200104D220010792200107522001033
:104D3C00000000000A00000000000306A6000800A6
:104D4C00020002009C001400030057494E555342C8
:104D5C0000000000000000000000800004000100C2
:104D6C002800440065007600690063006500490076
:104D7C006E007400650072006600610063006500DF
:104D8C00470055004900440000004E007B006200C3
:104D9C0063003700330039003800630031002D0008
:104DAC0037003300630064002D00340063006200A0
:104DBC0037002D0039003800620038002D00390012
:104DCC003100330061003800660063006100370079
:104DDC006200660036007D0000000000050F210017
:104DEC00011C100500DF60DDD88945C74C9CD265DD
:104DFC009D9E648A9F00000306A60001000000002F
:104E0C000600525053B4F4A1204C001000000000D6
:104E1C00344C0010444C0010501F00204C4C00101F
:104E2C00584C001009025400030100807D080B004F
:104E3C000202020000090400000102020004052421
:104E4C0000200105240100010424020605240600AB
:104E5C00010705810308001009040100020A000083
:104E6C00000705020240000007058202400000090D
:104E7C0004020000FF00010512011002EF020140C4
:104E8C008A2E0A000001010203010000402E0010CE
:104E9C00A82F0010F82F0010802F0010922F001058
:104EAC00702F0010E02E00108C2E0010802E0010A1
:104EBC006233001048330010183100108233001098
:104ECC0018310010303300101C3300101831001052
:104EDC00083300100E32001018310010EE3500109F
:104EEC00E0350010D43500101831001018310010C6
:104EFC00BE350010E03500101831001018310010CC
:104F0C001831001018310010183100101831001031
:104F1C001831001074350010520D0020520D002075
:104F2C009C0D0020BC0D0020000E0020120E002055
:104F3C00480D002000000000793B0010E93B0010F8
:104F4C00193C0010653C0010093D0010F13D0010AB
:104F5C000000000000000000F13E00104D3F00106A
:104F6C00693F0010913F0010D5220010B140001095
:044F7C000000000031
:104F8000BC4C0010C84C0010D44C0010E04C001079
:104F9000EC4C0010F84C0010044D0010104D0010A7
:044FA0000C4E0010A3
:104FA40003000068EFF3108C72B60268002AFCD08C
:104FB400BFF35F8F04229A56002A0BDB002900D02E
:104FC4000A6000201B68BFF35F8F00221A608CF315
:104FD40010887047D0221206126801201A71F1E776
:104FE400F0B5C646150000B504001E000268EFF3D4
:104FF400108172B61368002BFCD0BFF35F8F0423BB
:10500400E3562268002B2BDBBFF35F8F0020106078
:1050140081F31088D02212061278002752B29046EB
:105024009A420ED1002080BCB846F0BDBFF35F8F1A
:10503400176081F310882800310000F00DFF00286C
:10504400F0D12268EFF3108172B61368002BFCD004
:10505400BFF35F8F237922687F2BE7D9434602E0B1
:10506400D0231B061B682371BFF35F8F00231360DB
:1050740081F310880120D6E7F0B5C64600B50D00CF
:10508400040000F0B9FEFA2206000F0000232800F5
:105094000021920000F0E8FE36184F41002F02DA9A
:1050A4000126174F7642D0231B061B68002598461D
:1050B4000AE0BFF35F8F156081F310883000390078
:1050C40000F0CAFE002818D12268EFF3108172B6EE
:1050D4001368002BFCD0BFF35F8F237922687F2BEA
:1050E400E7D943462371BFF35F8F0023136081F335
:1050F4001088012080BCB846F0BD0020FAE7C04605
:10510400FFFFFF7F0268EFF3108172B61368002B74
:10511400FCD0BFF35F8FFF2303710368BFF35F8F7E
:1051240000221A6081F3108840BF704710B5084C04
:105134002378002B0AD18023064807495B051A68A7
:10514400C25004338B42FAD10123237010BDC046F0
:10515400651F0020801800100001001010B5014BDD
:10516400984710BD81180020034B1A68C0239B0088
:105174009343024A136070470C8001400C90014035
:10518400054B1A6880239B005340C02292001340B1
:10519400024A13607047C0460C8001400C900140E5
:1051A4000023F0B5DE4657464E4645469A46E0B5DE
:1051B40083B001900E00988A42491B8B14009847D3
:1051C400534681464049988A1B8B984753463F492A
:1051D4000500988A1B8B98478046FFF7A7FFC847AE
:1051E400A847FFF7CDFF251E22D00823C0219C46E7
:1051F4000220490562468B6A1A4018423CD0631B60
:10520400002D2CD1002A11D1002C11D0C0235B0514
:105214009B4602239A46063399465B464A465746BE
:105224009B6A1A401F423FD0002AF6D0002C2DD191
:10523400FFF79AFFC047FFF791FF03B0F0BCBB46EE
:10524400B246A946A046F0BD002C2FD1C02252057B
:10525400926A914608224F463A40BF072DD50D2B3E
:105264001BD9002AF0D1C0225205926A9146082225
:105274004F463A40BF07F2D4002A04D12B002343FF
:10528400002BB7D1D4E72B00002CF9D00B6E013CD6
:105294003370230001362B43F2E7019F013D3B7835
:1052A40001370B660197E7E70025E5E7C0235B05B7
:1052B4001B6E013C337001369CE72B00002ADFD1C2
:1052C400DCE7C0464946000045580000464300005C
:1052D4000022154B10B59A60DA601A615A619A611E
:1052E400DA611A625A629A62DA621A635A639A63D8
:1052F400DA631A645A649A64DA641A655A659A65B8
:10530400DA651A665A669A66DA661A675A679A6797
:10531400DA67F03292000021044800F075FD044B76
:10532400044A1A6010BDC04600001050341A002010
:10533400FC1D002080011050F0B54E464546DE4667
:105344005746E0B5214B00249E6D012585B0002E03
:1053540022D01F4B9A46012399461E4B984601E0E2
:10536400202C19D02A00230001342F003240E4B24B
:105374006D00002AF4D0524697654A465B085B00EC
:1053840022409B185B01434418009B4600F01EFC1E
:10539400002808D1BE43E3D105B0F0BCBB46B246F9
:1053A400A946A046F0BD5B46E0219A78DB8A01A8B5
:1053B40083600023C900018001210271437100F060
:1053C40025FC584600F0A0FBE4E7C046000011505D
:1053D40000301150F41900209823F0B5C646C84A8D
:1053E40000B5D55880232E009B02102484B01E40A3
:1053F4001D4274D0C34BC44C9A6AC44B00261A6035
:105404003B23E35C022B00D14FE17B23E35C022BC3
:1054140000D1F3E0BB23E35C022B00D1FAE0FB23D1
:10542400E35C022B00D101E13C23FF33E35C022B5C
:1054340000D12DE17C23FF33E35C022B00D10EE18C
:10544400BC23FF33E35C022B00D13FE1FC23FF3399
:10545400E35C022B00D1F5E0AD4BE35C022B00D101
:1054640074E1AC4BE35C022B00D105E1AA4BE35C95
:10547400022B00D175E1A94BE35C022B00D132E190
:10548400A74BE35C022B00D1A0E1A64BE35C022B0B
:1054940000D171E1A44BE35C022B00D1A1E1A34B49
:1054A400E35C022B00D17FE1002E08D1A04B1B78D6
:1054B400002B04D180219F4A90338902D150C0220D
:1054C40069468F4B92009B6C80265B058A805B0D3E
:1054D400012101A8029300F099FB974CB602EB0658
:1054E40000D57FE080235B021D4231D01E4301239F
:1054F40002249846844FBB7E002B14D000F08CFC11
:10550400012800D972E0C02200213800920100F085
:1055140001FB380000F0F8FA00F07EFC012802D903
:10552400844B5C661C664346FB702037012C22D1F9
:10553400C0236A46DB009380804A02AB03CA03C3DC
:10554400012101A800F062FB80227A4B92021A65C5
:1055540080235B011D4210D18023DB011D4223D136
:1055640080231B021D422FD1AE4200D0C0E104B003
:1055740080BCB846F0BD0124BDE700241E43604B47
:105584001C60FFF7A5FE80236A465B0093801472BB
:10559400012101A800F03AFB8022664B12031A6530
:1055A4008023DB011D42DBD01E4380236A46DB00DF
:1055B4009380012101A800F029FB10225D4B1A659C
:1055C40080231B021D42CFD01E43A0236A46DB006A
:1055D4009380012101A800F019FB8022554B120190
:1055E4001A65C1E7FFF7A8FE26007BE7544B444A3F
:1055F4001C66536E2340A342FBD184E77833E75CF7
:10560400002F00D106E70233E25C002A00D00DE14E
:105614003E00FFE6B833E75C002F00D1FFE602331B
:10562400E25C002A00D0F9E03E00F8E6F833E75CDB
:10563400002F00D1F8E60233E25C002A00D041E1F9
:105644003E00F1E6F933FF33E75C002F00D103E7B6
:105654000233E25C002A00D02BE13E00FCE6793301
:10566400FF33E75C002F00D1EAE60233E25C002A54
:1056740000D015E13E00E3E6324BE75C002F00D199
:10568400F4E60233E25C002A00D001E13E00EDE6DC
:105694003933FF33E75C002F00D1CBE60233E25C01
:1056A400002A00D0EBE03E00C4E63833E65C002E6E
:1056B40000D1AAE60233E25C002A00D1A5E620006C
:1056C40000222030E25400F04DFA9EE6B933FF3355
:1056D400E75C002F00D1B9E60233E25C002A00D077
:1056E400C4E03E00B2E6184BE75C002F00D1C7E6E9
:1056F4000233E25C002A00D0B0E03E00C0E6C046BF
:105704000000115000400540F4190020EC1900205D
:105714003B0200007B020000BB020000FB02000011
:105724003B0300007B030000BB030000FB030000FD
:10573400621F0020003011501000020000001050C1
:10574400002011507A020000FA0200006B4BE75C63
:10575400002F00D185E60233E25C002A76D13E00B8
:105764007FE6674BE75C002F00D184E60233E25CFE
:10577400002A63D13E007EE6624BE75C002F00D135
:1057840088E60233E25C002A00D0A3E05E4BE35CCF
:10579400022B30D15D4BE35C002B27D15C4BE35CE7
:1057A400022B00D08BE63E005A4BE35C002B00D169
:1057B4007AE6FF239B00E25C002A00D17FE6002208
:1057C400E2541C3BE01800F0CDF978E6524BE75C5C
:1057D400002F00D159E60233E25C002A16D13E00C4
:1057E40053E64A4BE35C002B00D158E6EF239B00C1
:1057F400E25C002A75D1464BE35C022B00D05EE6E6
:10580400444BE35C002B00D159E6D2E70022E2547A
:105814001C3BE01800F0A6F93E0036E6200000220A
:10582400A030E2543E0000F09DF9F8E5200000228B
:105834006030E2543E0000F095F9EBE50022E254BA
:105844001C3BE01800F08EF93E0014E60022E254FE
:105854001C3BE01800F086F93E0002E60022E25408
:105864001C3BE01800F07EF93E0009E6200000220F
:10587400A130FF30E2543E0000F074F9E6E5200068
:1058840000222130FF30E2543E0000F06BF9D1E5F4
:105894000022E2541C3BE01800F064F93E00E5E508
:1058A400200000226130FF30E2543E0000F05AF93B
:1058B400C6E520000022E130FF30E2543E0000F053
:1058C40051F9C9E520000022E030E2543E0000F026
:1058D40049F9A9E50022E2541C3BE01800F042F922
:1058E40054E70022E2541C3BE01800F03BF982E745
:1058F40031000A48694000F0A7FAC0463A020000A5
:10590400BA0200007A030000BB030000BA030000DF
:10591400FB030000FA0300003A030000604C00108F
:10592400F0B5C64600B50200838A008B8C46011C84
:10593400984200D9191CD47880252000461EB04115
:1059440089B2ED000D434003284301256C405B1AE6
:10595400D47054789BB29382002C31D16446D568BC
:10596400A4014E1E2D19B0461469002923D0062E19
:1059740032D92B0023439B072ED1631CEB1A022B35
:105984002AD900238F08BF00E658EE5004339F4203
:10599400FAD14346ED19DB1BE419B94209D0267844
:1059A4002E70002B05D066786E70012B01D0A37881
:1059B400AB701469938A6418146180221202104334
:1059C400002B02D18023DB0118436346002B00D057
:1059D400000480BCB846F0BD0023E65CEE540133FD
:1059E4009942FAD1E5E7C0468368F0B51A68040025
:1059F400002900D0120C63789205900D002B08D179
:105A0400E38AC318E382238B834201D90023A38250
:105A1400F0BDE368890125695E18471E002822D07D
:105A2400062F26D901315B18EB1A022B21D92B0042
:105A340033439B071DD10023120E9200F158E95005
:105A440004339A42FAD1BF1AAD18B618904209D05D
:105A540032782A70002F05D072786A70012F01D035
:105A6400B278AA702569E38A2D18C318E3822561E8
:105A7400C9E70022B35CAB5401329042FAD12569E4
:105A8400F1E7C04610B50400836800211B68FFF7E6
:105A9400ABFF63681B685B0002D5238B834200D095
:105AA40010BD01212000FFF79FFFF9E7084A03001A
:105AB400126C0020920703D49A78D209012A00D0EC
:105AC4007047D87E023843425841C0B2F8E7C04616
